:020000020000FC
:100000004FEF4DBF48E04EBFE8EAF0E040E144B9B1
:100010000E940C000C9400000E942800003229F479
:1000200010E50E944F000C942200003009F408955E
:100030000F93EF93FF930E942A000E943200FF91DA
:10004000EF910F91319618E20E944F000C940C0032
:1000500004910895EAEBF0E00154E00F20E0F21F74
:10006000049108950E94460081F018F014E10C9468
:100070003A001CE30E9448000E944F000E944A0080
:1000800014E10E944F000C9432000895000F08956F
:100090002C9A08952C9808950196F1F708950E94DE
:1000A0004C001A95E1F7089556494E4148205649AB
:1000B0004E41482056494E4148006088A89040284B
:1000C000D0082078B048E0A0F068D85010C03018B0
:0400D0007098B8C8A4
:00000001FF
