:020000020000FC
:100000004FEF4DBF48E04EBFE6E9F0E040E144B9B4
:100010000E940A000E941E00003079F10F93EF93B6
:10002000FF930E9436000E942000FF91EF910F91F4
:10003000319618E20E9446000C940A00049108953B
:100040000030D1F00E9434000E943F0018F014E10B
:100050000C942B001CE30E9446000E94410014E116
:100060000E9446000C942000001F0895E4EAF0E08E
:100070000154E00F0491089508950C944B002C9ABC
:1000800008952C9808950196F1F708950E94430071
:100090001A95E1F708954441544F525454454B4E3C
:1000A000494B00006088A8904028D0082078B048CC
:0E00B000E0A0F068D85010C030187098B8C8A2
:00000001FF
