:020000020000FC
:100000004FEF4DBF48E04EBFE8EAF0E040E144B9B1
:100010000E940A000E942000003259F10030B1F124
:100020000F93EF93FF930E9440000E942200FF91E4
:10003000EF910F9131961CE30E944F000C940A003F
:1000400004910895003091F00E9437000E9448000A
:1000500018F01EE10C942D001AE50E944F000E943A
:100060004A001EE10E944F000C9422000895001FD8
:10007000089512ED0E944A000E944F000C941A004D
:10008000EAEBF0E00154E00F049108950C94540061
:100090002C9A08952C9808950196F1F708950E94DE
:1000A0004C001A95E1F7089556494E4148205649AB
:1000B0004E41482056494E4148006088A89040284B
:1000C000D0082078B048E0A0F068D85010C03018B0
:0400D0007098B8C8A4
:00000001FF
