:020000020000FC
:1000000021E000E0009311010E940F000E94130004
:100010000E942F000E94DA000E947B00FBCF0FEFAE
:1000200004B90AB908950E9422010E9425010E9484
:10003000220100E30E94FB000E94FB000E94FB00E3
:1000400000E20E94FB0008E20E940F010FE00E9404
:100050000F010E94170106E00E940F01089500E0C1
:10006000009300010093010100930201009303013A
:10007000009304010093050100930601009307011A
:10008000009308010093090100930A0100930B01FA
:1000900000930C0100930D0100930E0100930F01DA
:1000A0000093100108950E9468000E94E3000E94DE
:1000B0000A010C9453000E945D0002950F930F708B
:1000C00000630A3308F0095F0E940A010F91089546
:1000D00000E600937C0007E800937A0000917A0024
:1000E000006400937A0000917A0006FD0C9473007E
:1000F000009179000895013041F0023081F0033021
:1001000029F10430E9F10530A9F0203021F020E098
:100110000E942801089521E00E9425010895009180
:100120001101003091F00A950093110100E10E9445
:100130000F010895009111010F3039F003950093DC
:10014000110106E10E940F0108950895B1E0A0E0B9
:1001500000911101A00F0C91003051F00A3541F0CF
:1001600003950C930E940A0100E10E940F0108957B
:1001700001E40C930E940A0100E10E940F0108951E
:10018000B1E0A0E000911101A00F0C91003051F0FE
:10019000013441F00A950C930E940A0100E10E948B
:1001A0000F0108950AE50C930E940A0100E10E94E4
:1001B0000F0108950E94E3000023E1F70E94E3008D
:1001C0000023E1F308950E9468000D3090F00B3297
:1001D00070F0023550F0023830F00F3C10F000E0C3
:1001E000089501E0089502E0089503E0089504E011
:1001F000089505E00895299A0BB900000000000059
:100200000E942201299808950E94FB0002950E94F5
:10021000FB0008950000289A0E9404010895289880
:100220000E940401089502E00E940F01089501E078
:100230000E940F0108950E941301F1E0E0E00E9486
:100240005B0008950196F1F708952A9A229A08957D
:040250002A9808954B
:00000001FF
