:020000020000FC
:1000000021E00E940A000E940E000E946D000E94E2
:100010004F00FBCF0FEF04B90AB908950E94B50055
:100020000E94B8000E94B50000E30E948E000E946A
:100030008E000E948E0000E20E948E0008E20E9464
:10004000A2000FE00E94A2000E94AA0008950E9450
:100050003C000E9476000E949D000C9427000E94A4
:10006000310002950F930F7000630A3308F0095FA7
:100070000E949D000F91089500E600937C0007E820
:1000800000937A0000917A00006400937A00009156
:100090007A0006FD0C944700009179000895013024
:1000A00041F0023081F0033091F0043089F00530E6
:1000B00081F0203021F020E00E94BB00089521E073
:1000C0000E94B80008950AE10E94A20008950895D0
:1000D000089506E10E94A20008950E947600002380
:1000E000E1F70E9476000023E1F308950E943C00AE
:1000F0000D3090F00B3270F0023550F0023830F0D5
:100100000F3C10F000E0089501E0089502E008952A
:1001100003E0089504E0089505E00895299A0BB9D5
:100120000000000000000E94B500299808950E9478
:100130008E0002950E948E0008950000289A0E9469
:100140009700089528980E949700089502E00E9461
:10015000A200089501E00E94A20008950E94A60056
:10016000F1E0E0E00E942F0008950196F1F7089574
:0A0170002A9A229A08952A98089509
:00000001FF
