:020000020000FC
:1000000021E000E0009311010E940F000E94130004
:100010000E942F000E949B000E944D00FBCF0FEF1B
:1000200004B90AB908950E94DB000E94E6000E940C
:10003000DB0000E30E94BB000E94BB000E94BB00EB
:1000400000E20E94BB0008E20E94CF000EE00E9486
:10005000CF000E94D70006E00E94CF00089500E084
:1000600010E0B1E0A0E0003121F01D9303950C9465
:100070003300089500E600937C0007E800937A00BF
:1000800000917A00006400937A0000917A0006FDE6
:100090000C944500009179000895013041F0023040
:1000A00081F0033011F1043049F10530A1F0203026
:1000B00021F020E00E94E900089521E00E94E6007E
:1000C0000895009111010030A9F10A9500931101E2
:1000D00000E10C949800009111010F3059F1039543
:1000E0000093110106E10C9498000E9487000030F3
:1000F000A9F00A3599F003950C9494000E948700AA
:10010000003079F0013469F00A950C949400B1E064
:10011000A0E000911101A00F0C91089501E40C944E
:1001200094000AE50C9494000C930E94CA0000E12C
:100130000E94CF0008950E94A3000023E1F70E94CF
:10014000A3000023E1F30E943A000D3090F00B323F
:1001500070F0023550F0023830F00F3C10F000E043
:10016000089501E0089502E0089503E0089504E091
:10017000089505E00895299A0BB9000000000000D9
:100180000E94DB00299808950E94BB0002950E94FE
:10019000BB0008950000289A0E94C4000895289882
:1001A0000E94C400089502E00E94CF00089501E07B
:1001B0000E94CF00089542E00C94E1000196F1F70F
:1001C00008950E94DE004A95E1F708952A9A229A3E
:0601D00008952A9808952D
:00000001FF
