:020000020000FC
:1000000021E000E0009311010E940F000E94130004
:100010000E942F000E94B3000E946600FBCF0FEFEA
:1000200004B90AB908950E94F3000E94FE000E94DC
:10003000F30000E30E94D3000E94D3000E94D3008B
:1000400000E20E94D30008E20E94E7000FE00E9455
:10005000E7000E94EF0006E00E94E700089500E03C
:10006000009300010093010100930201009303013A
:10007000009304010093050100930601009307011A
:10008000009308010093090100930A0100930B01FA
:1000900000930C0100930D0100930E0100930F01DA
:1000A00000931001089500E600937C0007E8009398
:1000B0007A0000917A00006400937A0000917A003F
:1000C00006FD0C945E00009179000895013041F026
:1000D000023081F0033011F1043041F10530A1F01C
:1000E000203021F020E00E940101089521E00E94CB
:1000F000FE000895009111010030A1F10A950093CE
:10010000110100E10C94B000009111010F3051F188
:1001100003950093110106E10C94B0000E949E002B
:10012000A9F00A3599F003950C94AC000E949E004A
:1001300081F0013471F00A950C94AC00B1E0A0E0BC
:1001400000911101A00F0C910030089501E40C946E
:10015000AC000AE50C94AC000C930E94E20000E1B4
:100160000E94E70008950E94BB000023E1F70E946F
:10017000BB000023E1F30E9453000D3090F00B32DE
:1001800070F0023550F0023830F00F3C10F000E013
:10019000089501E0089502E0089503E0089504E061
:1001A000089505E00895299A0BB9000000000000A9
:1001B0000E94F300299808950E94D30002950E949E
:1001C000D30008950000289A0E94DC000895289822
:1001D0000E94DC00089502E00E94E700089501E01B
:1001E0000E94E70008954AE00C94F9000196F1F7A7
:1001F00008950E94F6004A95E1F708952A9A229AF6
:0602000008952A980895FC
:00000001FF
