:020000020000FC
:1000000021E000E0009311010E940F000E94130004
:100010000E942F000E949D000E944D00FBCF0FEF19
:1000200004B90AB908950E94DD000E94E8000E9408
:10003000DD0000E30E94BD000E94BD000E94BD00E3
:1000400000E20E94BD0008E20E94D1000EE00E9482
:10005000D1000E94D90006E00E94D100089500E07E
:1000600010E0B1E0A0E0003121F01D9303950C9465
:100070003300089500E600937C0007E800937A00BF
:1000800000917A00006400937A0000917A0006FDE6
:100090000C944500009179000895013041F0023040
:1000A00091F0033021F1043059F10530B1F02030E6
:1000B00029F020E00E94EB000C94950021E00E94C2
:1000C000E8000C94950000911101003071F10A953F
:1000D0000093110100E10C949300009111010F3085
:1000E00021F103950093110106E10C9493000E9405
:1000F0009600003071F00A3561F003950C948F0082
:100100000E949600003041F0013431F00A950C94C1
:100110008F0001E40C948F000AE50C948F000C937F
:100120000E94CC0000E10E94D1000895B1E0A0E05F
:1001300000911101A00F0C9108950E94A5000023C9
:10014000E1F70E94A5000023E1F30E943A000D3080
:1001500090F00B3270F0023550F0023830F00F3C66
:1001600010F000E0089501E0089502E0089503E032
:10017000089504E0089505E00895299A0BB9000058
:10018000000000000E94DD00299808950E94BD0033
:1001900002950E94BD0008950000289A0E94C600A2
:1001A000089528980E94C600089502E00E94D10098
:1001B000089501E00E94D100089545E00C94E30009
:1001C0000196F1F708950E94E0004A95E1F708953D
:0A01D0002A9A229A08952A980895A9
:00000001FF
