:020000020000FC
:1000000021E000E0009311010E940F000E94130004
:100010000E942F000E94CC000E947B00FBCF0FEFBC
:1000200004B90AB908950E9414010E9417010E94A0
:10003000140100E30E94ED000E94ED000E94ED001B
:1000400000E20E94ED0008E20E9401010FE00E9420
:1000500001010E94090106E00E940101089500E0EB
:10006000009300010093010100930201009303013A
:10007000009304010093050100930601009307011A
:10008000009308010093090100930A0100930B01FA
:1000900000930C0100930D0100930E0100930F01DA
:1000A0000093100108950E9468000E94D5000E94EC
:1000B000FC000C9453000E945D0002950F930F709A
:1000C00000630A3308F0095F0E94FC000F91089555
:1000D00000E600937C0007E800937A0000917A0024
:1000E000006400937A0000917A0006FD0C9473007E
:1000F000009179000895013041F0023081F0033021
:10010000C9F0043079F10530D9F1203021F020E038
:100110000E941A01089521E00E941701089500919C
:1001200011010030C1F10A950093110100E10E9414
:1001300001010895B1E0A0E000911101A00F0C9120
:10014000003041F003950C930E94FC0000E10E94F6
:100150000101089501E40C930E94FC0000E10E945B
:1001600001010895B1E0A0E000911101A00F0C91F0
:100170000A950C930E94FC0000E10E940101089581
:10018000009111010F3039F003950093110106E140
:100190000E940101089508950E94D5000023E1F70F
:1001A0000E94D5000023E1F308950E9468000D30FD
:1001B00090F00B3270F0023550F0023830F00F3C06
:1001C00010F000E0089501E0089502E0089503E0D2
:1001D000089504E0089505E00895299A0BB90000F8
:1001E000000000000E941401299808950E94ED006B
:1001F00002950E94ED0008950000289A0E94F600E2
:10020000089528980E94F600089502E00E940101D6
:10021000089501E00E94010108950E940501F1E0A6
:10022000E0E00E945B0008950196F1F708952A9A94
:08023000229A08952A9808950E
:00000001FF
