:020000020000FC
:1000000021E000E0009311010E940F000E94130004
:100010000E942F000E94B0000E947B00FBCF0FEFD8
:1000200004B90AB908950E94F8000E94FB000E94DA
:10003000F80000E30E94D1000E94D1000E94D1008C
:1000400000E20E94D10008E20E94E5000FE00E9459
:10005000E5000E94ED0006E00E94E500089500E042
:10006000009300010093010100930201009303013A
:10007000009304010093050100930601009307011A
:10008000009308010093090100930A0100930B01FA
:1000900000930C0100930D0100930E0100930F01DA
:1000A0000093100108950E9468000E94B9000E9408
:1000B000E0000C9453000E945D0002950F930F70B6
:1000C00000630A3308F0095F0E94E0000F91089571
:1000D00000E600937C0007E800937A0000917A0024
:1000E000006400937A0000917A0006FD0C9473007E
:1000F000009179000895013041F0023081F0033021
:10010000A9F0043029F1053021F1203021F020E060
:100110000E94FE00089521E00E94FB00089501E086
:100120000093110100E10E94E5000895B1E0A0E014
:1001300000911101A00F0C91003029F003950C9350
:100140000E94E000089501E40C930E94E0000895ED
:1001500008950FEF0093110106E10E94E500089554
:100160000E94B9000023E1F70E94B9000023E1F3E7
:1001700008950E9468000D3090F00B3270F0023547
:1001800050F0023830F00F3C10F000E0089501E02C
:10019000089502E0089503E0089504E0089505E05D
:1001A0000895299A0BB90000000000000E94F80091
:1001B000299808950E94D10002950E94D1000895C7
:1001C0000000289A0E94DA00089528980E94DA0018
:1001D000089502E00E94E500089501E00E94E50014
:1001E00008950E94E900F1E0E0E00E945B000895BC
:1001F0000196F1F708952A9A229A08952A98089567
:00000001FF
