:020000020000FC
:040000000C941D003F
:10002C000E94A3000E94D9000E94910018950E9482
:10003C0028000E942C000E9455000E9448007894D1
:10004C000C9426000FEF04B90AB908950E94100110
:10005C000E9413010E94100100E30E9469000E949B
:10006C0069000E94690000E20E94690008E20E9497
:10007C007D000FE00E947D000E94850006E00E943A
:10008C007D0008950CE00093810004EF009389003B
:10009C0003E20093880002E000936F00089510E0E3
:1000AC0005E00093000104E00093010109E00093D6
:1000BC00020105E00093030103E00093040101E059
:1000CC00009305010895299A0BB900000000000067
:1000DC000E941001299808950E94690002950E94BF
:1000EC00690008950000289A0E94720008952898CB
:1000FC000E947200089502E00E947D00089501E0C4
:10010C000E947D0008950191003021F00E9478003A
:10011C000C94890008950E948100F1E0E6E00E94B1
:10012C00890008950E94A3000E94D9000E949100AA
:10013C000C94980008950C930895B1E0A0E01AE097
:10014C000E94D200C1F70E94D60016E00E94D20095
:10015C0091F70E94D6001AE00E94D20061F70E942B
:10016C00D60016E00E94D20031F70E94D6000C9106
:10017C00039510910501123021F40430E1F60C9432
:10018C00C9000A30C1F60E94D60013E00E94D200CA
:10019C0091F60E94D60008950C91039501170895CD
:1001AC0000270D930895B1E0A0E060E060930E018C
:1001BC000E94FD0060930D010E94FD0060930C01F4
:1001CC006AE360930B010E94FD0060930A010E9498
:1001DC00FD00609309016AE3609308010E94FD0031
:1001EC00609307010E94FD0060930601089560E38F
:1001FC000C91600F119608950E94A3000C940201BB
:10020C000E9413010E9410010E9416010E9410010D
:10021C000C9406010196F1F708952A9A229A0895F2
:04022C002A9808956F
:00000001FF
