:020000020000FC
:100000000E9409000E940D000E9451000E945600AB
:10001000F7CF0FEF04B90AB908950E9462000E9459
:1000200065000E94620000E30E9429000E942900EE
:100030000E94290000E20E94290008E20E943C0080
:100040000FE00E943C000E94440006E00E943C0039
:100050000895299A0BB900000000000029980E9419
:10006000620008950E94290002950E9429000895C7
:10007000289A0E943200089528980E94320008951C
:1000800002E00E943C00089501E00E943C000895B7
:100090000491003029F031960E9438000C944800F9
:1000A0000895F0E0E4ED0E94480008950C94560095
:1000B0000E9465000E9462000E9468000E94620027
:1000C0000C9458000196F1F708952A9A229A0895FF
:0600D0002A980895350096
:00000001FF
