:020000020000FC
:040000000C941D003F
:10002C000E94A3000E94CC000E94910018950E948F
:10003C0028000E942C000E9455000E9448007894D1
:10004C000C9426000FEF04B90AB908950E9403011D
:10005C000E9406010E94030100E30E9469000E94B5
:10006C0069000E94690000E20E94690008E20E9497
:10007C007D000FE00E947D000E94850006E00E943A
:10008C007D0008950CE00093810004EF009389003B
:10009C0003E20093880002E000936F00089510E0E3
:1000AC0005E00093000104E00093010109E00093D6
:1000BC00020105E00093030103E00093040102E058
:1000CC00009305010895299A0BB900000000000067
:1000DC000E940301299808950E94690002950E94CC
:1000EC00690008950000289A0E94720008952898CB
:1000FC000E947200089502E00E947D00089501E0C4
:10010C000E947D0008950191003021F00E9478003A
:10011C000C94890008950E948100F1E0E6E00E94B1
:10012C00890008950E94A3000E94CC000E949100B7
:10013C000C94980008950C930895B1E0A0E0F2E0BF
:10014C00E6E115910C910395043031F0011799F704
:10015C0000270D930C94A70024E030910401321376
:10016C000C94AC0022E03091050132130C94AC00DD
:10017C000E94C100089500E010E0B1E0A0E006305C
:10018C0021F01D9303950C94C5000895B1E0A0E0F7
:10019C0060E060930E010E94F00060930D010E94DC
:1001AC00F00060930C016AE360930B010E94F00075
:1001BC0060930A010E94F000609309016AE3609366
:1001CC0008010E94F000609307010E94F000609308
:1001DC000601089560E30C91600F119608950E943A
:1001EC00A3000C94F5000E9406010E9403010E94DA
:1001FC0009010E9403010C94F9000196F1F708958E
:10020C002A9A229A08952A9808950A060A060A0636
:00000001FF
