:020000020000FC
:100000000E9409000E940D000E9451000E945800A9
:10001000F7CF0FEF04B90AB908950E9498000E9423
:100020009B000E94980000E30E9429000E94290082
:100030000E94290000E20E94290008E20E943C0080
:100040000FE00E943C000E94440006E00E943C0039
:100050000895299A0BB900000000000029980E9419
:10006000980008950E94290002950E942900089591
:10007000289A0E943200089528980E94320008951C
:1000800002E00E943C00089501E00E943C000895B7
:100090000491003029F031960E9438000C944800F9
:1000A0000895F1E0E0E40E94480008950C9308955B
:1000B0000E945C000C945800B1E0A0E00C91039504
:1000C0000A30A1F700270D930C910395063071F7C4
:1000D00000270D930C9103950A3041F700270D93EB
:1000E0000C910395063011F700270D930C910395A1
:1000F000123009F021F40430C9F60C9481000A3062
:10010000A9F600270D931395012F033079F61127D7
:100110001D9308950E945C000C948A000E949B002D
:100120000E9498000E949E000E9498000C948E00ED
:100130000196F1F708952A9A229A08952A98089527
:02014000350088
:00000001FF
