:020000020000FC
:040000000C941D003F
:10002C000E94A1000E94D5000E94910018950E9488
:10003C0028000E942C000E9455000E9448007894D1
:10004C000C9426000FEF04B90AB908950E940C0114
:10005C000E940F010E940C0100E30E9469000E94A3
:10006C0069000E94690000E20E94690008E20E9497
:10007C007D000FE00E947D000E94850006E00E943A
:10008C007D0008950CE00093810004EF009389003B
:10009C0003E20093880002E000936F00089510E0E3
:1000AC0005E00093000104E00093010109E00093D6
:1000BC00020105E00093030103E00093040102E058
:1000CC00009305010895299A0BB900000000000067
:1000DC000E940C01299808950E94690002950E94C3
:1000EC00690008950000289A0E94720008952898CB
:1000FC000E947200089502E00E947D00089501E0C4
:10010C000E947D0008950191003021F00E9478003A
:10011C000C94890008950E948100F1E0E6E00E94B1
:10012C00890008950C9308950E94A1000E94D500A7
:10013C000E9491000895B1E0A0E01AE00E94D10065
:10014C0089F700270D9316E00E94D10059F700277C
:10015C000D931AE00E94D10029F700270D9316E0A9
:10016C000E94D100F9F600270D930C910395109184
:10017C000501123009F021F40430A1F60C94C800EA
:10018C000A3081F600270D9313E00E94D10051F63E
:10019C0000270D9308950C91039501170895B1E074
:1001AC00A0E060E060930E010E94F90060930D01E5
:1001BC000E94F90060930C016AE360930B010E94AA
:1001CC00F90060930A010E94F900609309016AE347
:1001DC00609308010E94F900609307010E94F900E6
:1001EC0060930601089560E30C91600F11960895D9
:1001FC000E94A1000C94FE000E940F010E940C01B1
:10020C000E9412010E940C010C9402010196F1F75C
:0C021C0008952A9A229A08952A980895BD
:00000001FF
