:020000020000FC
:040000000C9421003B
:10002C000FB70F930E949C000E94C8000E9495007D
:10003C000F910FBF18950E942C000E9430000E9457
:10004C0059000E944C0078940C942A000FEF04B9CC
:10005C000AB908950E94DD000E94E0000E94DD00B4
:10006C0000E30E946D000E946D000E946D0000E292
:10007C000E946D0008E20E9481000CE00E94810049
:10008C000E94890006E00E94810008950CE0009314
:10009C00810004EF0093890003E20093880002E0E2
:1000AC0000936F00089510E005E00093000104E058
:1000BC000093010109E00093020105E000930301A4
:1000CC0003E00093040102E0009305010895299ACE
:1000DC000BB90000000000000E94DD002998089573
:1000EC000E946D0002950E946D0008950000289AF0
:1000FC000E947600089528980E947600089502E0E8
:10010C000E948100089501E00E94810008950191F0
:10011C00003021F00E947C000C948D0008950E9408
:10012C008500F1E0E6E00E948D000895B1E0A0E0CA
:10013C00F1E0EAEC15910C910395011721F40027DD
:10014C000D930C94A0000C93043011F00C94BC0093
:10015C0024E03091040132130C94BC0022E0309165
:10016C00050132130C94BC000E94BD00089500E000
:10017C0010E0B1E0A0E0063021F01D9303950C9443
:10018C00C1000895B1E0A0E0D1E0C6E0F1E0E0EDFF
:10019C00279665916A3321F0603031F00D91600F34
:1001AC00688321970C94CF00299668830895019653
:1001BC00F1F708952A9A229A08952A9808950A0622
:0E01CC000A060A0630303A30303A3030000071
:00000001FF
