:020000020000FC
:040000000C94250037
:10002C000C9418000F930FB70F930E94A0000E941E
:10003C00D2000E9499000F910FBF0F9118950E944A
:10004C0030000E9434000E945D000E9450007894A1
:10005C000C942E000FEF04B90AB908950E94E70022
:10006C000E94EA000E94E70000E30E9471000E94D7
:10007C0071000E94710000E20E94710008E20E946F
:10008C0085000CE00E9485000E948D0006E00E9415
:10009C00850008950CE00093810004EF0093890023
:1000AC0003E20093880002E000936F00089510E0D3
:1000BC0005E00093000104E00093010109E00093C6
:1000CC00020105E00093030103E00093040102E048
:1000DC00009305010895299A0BB900000000000057
:1000EC000E94E700299808950E94710002950E94D1
:1000FC00710008950000289A0E947A0008952898AB
:10010C000E947A00089502E00E948500089501E0A3
:10011C000E94850008950191003021F00E9480001A
:10012C000C94910008950E948900F1E0E6E00E9491
:10013C00910008951F932F933F93B1E0A0E0F1E05D
:10014C00EEED15910C910395011721F400270D93F9
:10015C000C94A7000C93043011F00C94C30024E011
:10016C003091040132130C94C30022E0309105014C
:10017C0032130C94C3000E94C7001F912F913F9122
:10018C00089500E010E0B1E0A0E0063021F01D93EE
:10019C0003950C94CB000895B1E0A0E0D1E0C6E04B
:1001AC00F1E0E4EE279665916A3321F0603031F08E
:1001BC000D91600F688321970C94D9002996688360
:1001CC0008950196F1F708952A9A229A08952A988B
:1001DC0008950A060A060A0630303A30303A3030B2
:0201EC00000011
:00000001FF
