:020000020000FC
:100000004FEF4DBF48E04EBF0E940B000E940F0013
:100010000E944000F5CF0FEF04B90AB908950E947D
:100020004C000E944F000E944C0000E30E942C00F4
:100030000E942C000E942C0000E20E942C0008E28A
:100040000E943C000FE00E943C0001E00E943C0046
:1000500006E00E943C000895299A0BB929980E9455
:100060004C0008950E942C0002950E942C000895D7
:10007000289A0E943200089528980E94320008951C
:100080000C9440000E944F000E944C000E945200BD
:100090000E944C000C9442000196F1F708952A9AB0
:0800A000229A08952A980895A0
:00000001FF
