:020000020000FC
:040000000C941D003F
:10002C000E94A3000E94DA000E94910018950E9481
:10003C0028000E942C000E9455000E9448007894D1
:10004C000C9426000FEF04B90AB908950E9411010F
:10005C000E9414010E94110100E30E9469000E9499
:10006C0069000E94690000E20E94690008E20E9497
:10007C007D000FE00E947D000E94850006E00E943A
:10008C007D0008950CE00093810004EF009389003B
:10009C0003E20093880002E000936F00089510E0E3
:1000AC0005E00093000104E00093010109E00093D6
:1000BC00020105E00093030103E00093040102E058
:1000CC00009305010895299A0BB900000000000067
:1000DC000E941101299808950E94690002950E94BE
:1000EC00690008950000289A0E94720008952898CB
:1000FC000E947200089502E00E947D00089501E0C4
:10010C000E947D0008950191003021F00E9478003A
:10011C000C94890008950E948100F1E0E6E00E94B1
:10012C00890008950E94A3000E94DA000E949100A9
:10013C000C94980008950C930895B1E0A0E01AE097
:10014C000E94D300C1F70E94D70016E00E94D30092
:10015C0091F70E94D7001AE00E94D30061F70E9429
:10016C00D70016E00E94D30031F70E94D7000C9103
:10017C00039510910501123009F021F40430D9F6E1
:10018C000C94CA000A30B9F60E94D70013E00E9402
:10019C00D30089F60E94D70008950C91039501179E
:1001AC00089500270D930895B1E0A0E060E06093FE
:1001BC000E010E94FE0060930D010E94FE006093F0
:1001CC000C016AE360930B010E94FE0060930A012C
:1001DC000E94FE00609309016AE3609308010E948B
:1001EC00FE00609307010E94FE00609306010895D3
:1001FC0060E30C91600F119608950E94A3000C947B
:10020C0003010E9414010E9411010E9417010E9417
:10021C0011010C9407010196F1F708952A9A229A7C
:06022C0008952A980895D0
:00000001FF
