:020000020000FC
:040000000C94250037
:10002C000C9418000F930FB70F930E94A4000E941A
:10003C00E8000E9499000F910FBF0F9118950E9434
:10004C0030000E9434000E945D000E9450007894A1
:10005C000C942E000FEF04B90AB908950E940D01FB
:10006C000E9410010E940D0100E30E9471000E9489
:10007C0071000E94710000E20E94710008E20E946F
:10008C0085000CE00E9485000E948D0006E00E9415
:10009C00850008950CE00093810004EF0093890023
:1000AC0003E20093880002E000936F00089510E0D3
:1000BC0005E00093000104E00093010109E00093C6
:1000CC00020105E00093030103E00093040102E048
:1000DC00009305010895299A0BB900000000000057
:1000EC000E940D01299808950E94710002950E94AA
:1000FC00710008950000289A0E947A0008952898AB
:10010C000E947A00089502E00E948500089501E0A3
:10011C000E94850008950191003021F00E9480001A
:10012C000C9491000895FF93EF930E948900F1E0E5
:10013C00E6E00E949100EF91FF9108950F931F93B9
:10014C002F933F93FF93EF93BF93AF93B1E0A0E056
:10015C00F2E0EAE215910C910395011721F40027C6
:10016C000D930C94B0000C93043011F00C94CC0053
:10017C0024E03091040132130C94CC0022E0309135
:10018C00050132130C94CC000E94D500AF91BF91A5
:10019C00EF91FF913F912F911F910F9108950F9324
:1001AC001F93BF93AF9300E010E0B1E0A0E00630E6
:1001BC0021F01D9303950C94DD00AF91BF911F911D
:1001CC000F910895BF93AF93DF93CF93FF93EF936A
:1001DC006F930F93B1E0A0E0D1E0C6E0F2E0E0E372
:1001EC00279665916A3321F0603031F00D91600FE4
:1001FC00688321970C94F700299668830F916F916F
:10020C00EF91FF91CF91DF91AF91BF91089501963E
:10021C00F1F708952A9A229A08952A9808950A06C1
:0E022C000A060A0630303A30303A3030000010
:00000001FF
